:020000040000FA
:10000000B80400206D0200007102000073020000BD
:100010007502000077020000790200000000000075
:100020000000000000000000000000007B02000053
:100030007D020000000000007F020000810200003D
:10004000830200008302000083020000830200009C
:10005000830200008302000083020000830200008C
:10006000830200008302000083020000830200007C
:10007000830200008302000083020000830200006C
:10008000830200008302000083020000830200005C
:10009000830200008302000083020000830200004C
:1000A000830200008302000083020000830200003C
:1000B0008302000083020000E903000083020000C5
:1000C000830200008302000083020000830200001C
:1000D000830200008302000083020000830200000C
:1000E00083020000830200008302000083020000FC
:1000F00083020000830200008302000083020000EC
:1001000083020000830200008302000083020000DB
:1001100083020000830200008302000083020000CB
:1001200083020000830200008302000083020000BB
:1001300083020000830200008302000083020000AB
:1001400000000000000000000000000000000000AF
:10015000830200008302000083020000830200008B
:10016000000000000000000000000000000000008F
:10017000000000000000000000000000000000007F
:10018000000000000000000000000000000000006F
:10019000000000000000000000000000000000005F
:1001A000000000000000000000000000000000004F
:1001B000830200008302000083020000830200002B
:1001C000830200008302000083020000830200001B
:1001D000830200008302000083020000830200000B
:1001E00083020000830200008302000083020000FB
:1001F00083020000830200008302000083020000EB
:10020000830200008302000083020000000000005F
:1002100083020000830200008302000083020000CA
:1002200083020000830200008302000083020000BA
:1002300083020000830200008302000083020000AA
:10024000830200008302000083020000830200009A
:10025000830200008302000083020000830200008A
:1002600083020000830200008302000000F00AB84D
:10027000FEE7FEE7FEE7FEE7FEE7FEE7FEE7FEE756
:10028000FEE7FEE700F002F800F03AF80AA090E876
:10029000000C82448344AAF10107DA4501D100F041
:1002A0002FF8AFF2090EBAE80F0013F0010F18BFD4
:1002B000FB1A43F001031847F0040000100500008A
:1002C000103A24BF78C878C1FAD8520724BF30C882
:1002D00030C144BF04680C60704700000023002454
:1002E00000250026103A28BF78C1FBD8520728BF46
:1002F00030C148BF0B6070471FB51FBD10B510BDA2
:1003000000F029F81146FFF7F7FF00F0F5F900F0CB
:1003100047F803B4FFF7F2FF03BC00F04FF800000A
:1003200072B6704762B67047EFF3108072B67047CE
:1003300080F31088704730BF704702480249014A75
:10034000024B7047B8000020B8040020B80000201D
:10035000704770477047754600F02CF8AE460500B0
:100360006946534620F00700854618B020B5FFF7D0
:10037000E4FFBDE820404FF000064FF000074FF0CB
:1003800000084FF0000B21F00701AC46ACE8C009B3
:10039000ACE8C009ACE8C009ACE8C0098D467047BC
:1003A00010B50446AFF300802046BDE81040FFF7CB
:1003B000B0BF0000004870475800002001491820D5
:1003C000ABBEFEE7260002007047000008B50548F6
:1003D000009002E00098401E009000980028F9D19B
:1003E00008BD000020A1070010B5FFF7EFFF164879
:1003F000006800F0010058B114480078303014490A
:1004000008700846007800F05FF901201149086083
:100410000D48006800F0100068B10C480068401CEE
:100420000A490860084600680621B0FBF1F201FBAA
:1004300012000649086004480830006840F01100C6
:1004400001490831086010BD145402400400002026
:1004500000000020080000201D48006F40F0004010
:100460001B4908670846006F40F4006008670846AB
:10047000006E20F4F86008660846006E00F5A8607B
:1004800008660846006F20F0700008670846006F95
:1004900008670846006F20F4005008670846006FA0
:1004A00040F0804008670846006F20F0FE5000F1E1
:1004B000E070086700BF0648006D00F040000028AB
:1004C000F9D00348006F20F40060014908677047C5
:1004D00000E00F403C48006840F020003B49C1F874
:1004E00008013B483B490860081D006840F01F00B8
:1004F000091D0860081D006820F01F00091D086024
:10050000081D00686FF31300091D08603248006879
:1005100020F01100304908600846006840F00E00E5
:1005200008602D482030006820F01F002A49203143
:10053000086028481038006840F01100254910393B
:1005400008602448001F006840F01F002149091F6F
:1005500008602148001D006820F011001E49091D97
:100560000860081D006820F01100091D0860081DC2
:10057000006820F01100091D086017481C30006851
:1005800040F0110014491C31086013481030006815
:1005900040F01100104910310860104800680F4900
:1005A000096821F4600141F4003108430B490860F7
:1005B0004FF0E020D0F8000140F080404FF0E02103
:1005C000C1F800017047000008E10F4000E00F4053
:1005D0004B434F4C20550240005402401CE400E0C5
:1005E00000BF0548806900F010000028F9D10248DA
:1005F0000068C0B27047000000D0004010B502464D
:100600000023FFF7EDFF44B207E08B4202DA1470DB
:10061000521C5B1CFFF7E4FF44B22E2CF5D10020E6
:10062000107010BD2148006840F001002049C1F859
:1006300008012048006840F002001E4908601D487B
:100640001038006840F002001A49103908601A4852
:10065000006B20F00100184908631B204862082045
:1006600088627020C8620846006B40F2013108437E
:10067000114908631148006840F003000F49086001
:100680000E48FC30006840F003000C49FC31086063
:100690000B48006820F0FF00113009490860094844
:1006A000006820F0030007490860704708E10F4028
:1006B00000E00F4018E60F4000D0004020540040FA
:1006C0002C5500402845004000BF0449896901F0CD
:1006D00020010029F9D101490860704700D000408D
:1006E00000B5024603E01078FFF7EEFF521C1078C9
:1006F0000028F8D100BD0000FFF7AEFEFFF792FF23
:10070000FFF7E8FE13E0FFF76BFF094908700846A2
:100710000078322805D100F00FF830200549087024
:1007200005E003480078332801D100F031F8EAE70A
:10073000010000200000002010B51AE0FFF750FF74
:100740000E4908700846007830380D4908600020CE
:100750000C49086006E00C480949096850F8210076
:100760000A4908600748006818B904480078212839
:10077000F1D1024800782128E0D110BD000000200E
:10078000040000200800002018000020FC53024054
:1007900010B513210348FFF731FF0248FFF7A0FF10
:1007A00010BD000044000020C80700000000002029
:1007B00030000000C0020000F807000030000020F8
:1007C00088040000DC02000000300000000000008F
:1007D0000100000000000000726762707764000092
:1007E00002000000080000000400000006000000F5
:0807F0000E00000000000000F3
:040000050000026D88
:00000001FF
