:020000040000FA
:10000000C00400206D0200007102000073020000B5
:100010007502000077020000790200000000000075
:100020000000000000000000000000007B02000053
:100030007D020000000000007F020000810200003D
:10004000830200008302000083020000E903000035
:10005000830200008302000083020000830200008C
:10006000830200008302000083020000830200007C
:10007000830200008302000083020000830200006C
:10008000830200008302000083020000830200005C
:10009000830200008302000083020000830200004C
:1000A000830200008302000083020000830200003C
:1000B0008302000083020000450400008302000068
:1000C000830200008302000083020000830200001C
:1000D000830200008302000083020000830200000C
:1000E00083020000830200008302000083020000FC
:1000F00083020000830200008302000083020000EC
:1001000083020000830200008302000083020000DB
:1001100083020000830200008302000083020000CB
:1001200083020000830200008302000083020000BB
:1001300083020000830200008302000083020000AB
:1001400000000000000000000000000000000000AF
:10015000830200008302000083020000830200008B
:10016000000000000000000000000000000000008F
:10017000000000000000000000000000000000007F
:10018000000000000000000000000000000000006F
:10019000000000000000000000000000000000005F
:1001A000000000000000000000000000000000004F
:1001B000830200008302000083020000830200002B
:1001C000830200008302000083020000830200001B
:1001D000830200008302000083020000830200000B
:1001E00083020000830200008302000083020000FB
:1001F00083020000830200008302000083020000EB
:10020000830200008302000083020000000000005F
:1002100083020000830200008302000083020000CA
:1002200083020000830200008302000083020000BA
:1002300083020000830200008302000083020000AA
:10024000830200008302000083020000830200009A
:10025000830200008302000083020000830200008A
:1002600083020000830200008302000000F00AB84D
:10027000FEE7FEE7FEE7FEE7FEE7FEE7FEE7FEE756
:10028000FEE7FEE700F002F800F03AF80AA090E876
:10029000000C82448344AAF10107DA4501D100F041
:1002A0002FF8AFF2090EBAE80F0013F0010F18BFD4
:1002B000FB1A43F0010318472C0B00004C0B000005
:1002C000103A24BF78C878C1FAD8520724BF30C882
:1002D00030C144BF04680C60704700000023002454
:1002E00000250026103A28BF78C1FBD8520728BF46
:1002F00030C148BF0B6070471FB51FBD10B510BDA2
:1003000000F029F81146FFF7F7FF00F007FC00F0B6
:1003100047F803B4FFF7F2FF03BC00F04FF800000A
:1003200072B6704762B67047EFF3108072B67047CE
:1003300080F31088704730BF704702480249014A75
:10034000024B7047C0000020C0040020C000002005
:10035000704770477047754600F02CF8AE460500B0
:100360006946534620F00700854618B020B5FFF7D0
:10037000E4FFBDE820404FF000064FF000074FF0CB
:1003800000084FF0000B21F00701AC46ACE8C009B3
:10039000ACE8C009ACE8C009ACE8C0098D467047BC
:1003A00010B50446AFF300802046BDE81040FFF7CB
:1003B000B0BF0000004870476000002001491820CD
:1003C000ABBEFEE7260002007047000008B50548F6
:1003D000009002E00098401E009000980028F9D19B
:1003E00008BD000020A1070010B51148006800F00A
:1003F000010098B1FFF7EAFF01200E4908600E499D
:1004000008600D200D4908700D480078322802D18F
:10041000212000F061FB30200949087004480830B1
:10042000006840F0010002490831086010BD00007A
:100430001474004008000020040000201600002072
:100440001400002010B5FFF7C1FF1548006800F048
:10045000010040B1134909783031C8B200F03CFBCB
:100460000120114908600E48006800F0100068B1D2
:100470000C480068401C0B490860084600680621CB
:10048000B0FBF1F201FB1200064908600448083095
:10049000006840F0110002490831086010BD0000FA
:1004A000145402400C0000200400002010B500F09D
:1004B0009DF800F09BF816A000F01AFB00F096F8EB
:1004C0001CA000F015FB00F091F828A000F010FB34
:1004D00000F08CF82CA000F00BFB00F087F834A0A3
:1004E00000F006FB00F082F83CA000F001FB00F0F9
:1004F0002FFA3C4908600846007830303A490870C5
:1005000000F074F83848007800F0E6FA10BD0000FA
:1005100057454C4F4D4520746F204345435320347D
:1005200034372050726F6A6563742032202D205555
:1005300041525400506C656173652063686F6F733E
:1005400065206120636F6D6D756E69636174696F9D
:100550006E206D6F646528747970652031206F722C
:100560002032206F722033293A0000002020202002
:1005700020312E205043203C2D2D3E204D43555FF1
:1005800031206F6E6C7900002020202020322E2038
:100590004D43555F31203C2D2D3E204D43555F325C
:1005A000204C454420436F6E74726F6C0000000055
:1005B0002020202020332E205043203C2D2D3E2073
:1005C0004D43555F31203C2D2D3E204D43555F322C
:1005D000204D657373656E6765720000456E7465C6
:1005E000723A2000100000201400002010B50D20E9
:1005F00000F066FA0A2000F063FA10BD1D48006F93
:1006000040F000401B4908670846006F40F4006056
:1006100008670846006E20F4F86008660846006E19
:1006200000F5A86008660846006F20F070000867B3
:100630000846006F08670846006F20F400500867FE
:100640000846006F40F0804008670846006F20F0C1
:10065000FE5000F1E070086700BF0648006D00F032
:1006600040000028F9D00348006F20F400600149E1
:100670000867704700E00F403B48006840F0080002
:100680003A49C1F808013A483A49086039480830FF
:10069000006820F00100374908310860081D006833
:1006A00020F00F00091D08603348006820F00100A9
:1006B0003149086030482030006820F001002E49A0
:1006C000203108602B48001D006840F001002949D6
:1006D000091D086027481038006840F001002549CE
:1006E000103908602348001F006840F001002149CC
:1006F000091F08602048001D006820F001001E4905
:10070000091D0860081D006820F00100091D08602F
:10071000081D006820F00100091D086016481C3003
:10072000006840F0010014491C3108601248103084
:10073000006840F001001049103108600F4800685F
:100740000E49096821F07E4141F0C06108430B4920
:1007500008604FF0E020D0F8000140F008004FF0B2
:10076000E021C1F80001704708E10F4000E00F40B0
:100770004B434F4C207500400074004000E400E003
:100780003C48006840F020003B49C1F808013B4864
:100790003B490860081D006840F01F00091D086003
:1007A000081D006820F01F00091D0860081D006872
:1007B0006FF31300091D08603248006820F0110033
:1007C000304908600846006840F00E0008602D4877
:1007D0002030006820F01F002A4920310860284896
:1007E0001038006840F0110025491039086024488D
:1007F000001F006840F01F002149091F08602148C0
:10080000001D006820F011001E49091D0860081D28
:10081000006820F01100091D0860081D006820F024
:100820001100091D086017481C30006840F01100D5
:1008300014491C31086013481030006840F0110062
:10084000104910310860104800680F49096821F408
:10085000600141F4003108430B4908604FF0E0208B
:10086000D0F8000140F080404FF0E021C1F80001D5
:100870007047000008E10F4000E00F404B434F4C31
:1008800020550240005402401CE400E0014600BF35
:100890000648806900F0100010B108680028F7D001
:1008A0000020086001480068C0B2704700C00040E6
:1008B000014600BF0648806900F0100010B10868CA
:1008C0000028F7D00020086001480068C0B27047D7
:1008D00000D0004038B502460D46002300200090AD
:1008E0006846FFF7D3FF44B214E0082C06D16BB181
:1008F000521E5B1E082000F0E3F807E0AB4205DA69
:100900001470521C5B1CE0B200F0DAF86846FFF786
:10091000BDFF44B20D2CE8D10020107038BD38B5B1
:1009200002460B460024002000906846FFF7C0FFF7
:1009300045B208E09C4202DA1570521C641C6846FD
:10094000FFF7B6FF45B22E2DF4D10020107038BD50
:1009500010B5002300240020FFF798FF42B21BE0EF
:10096000302A0BDB392A09DCA2F130000A2103FB13
:100970000103641CD0B200F0A3F809E0082A07D1F3
:1009800034B10A20B3FBF0F3641ED0B200F098F843
:100990000020FFF77BFF42B20D2AE1D1184610BDBF
:1009A0001E48006840F001001D49C1F804010846D6
:1009B000D0F8080140F00100C1F808011948006BA7
:1009C00020F00100174908631B2048620820886254
:1009D0007020C8620846006B40F20131084311499B
:1009E00008631148006840F003000F4908600E4892
:1009F000FC30006840F003000B49FC3108600B48F4
:100A0000006820F0FF00113008490860081F0068E6
:100A100020F00300091F08607047000004E10F4048
:100A200000E00F4000C00040204400402C45004042
:100A30001E48006840F002001C4908601B4810383E
:100A4000006840F002001949103908601848006B2E
:100A500020F00100164908631B20486208208862C4
:100A60007020C8620846006B40F20131084310490B
:100A700008631048006840F003000E4908600D4804
:100A8000FC30006840F003000A49FC3108600A4865
:100A9000006820F0FF00113007490860074800682F
:100AA00020F00300054908607047000018E60F4079
:100AB00000D00040205400402C5500402845004004
:100AC00000BF0449896901F020010029F9D10149D9
:100AD0000860704700C0004000BF0449896901F008
:100AE00020010029F9D101490860704700D0004079
:100AF00000B5024603E01078FFF7E2FF521C1078C1
:100B00000028F8D100BD00B5024603E01078FFF7D9
:100B1000E3FF521C10780028F8D100BDFFF76EFDEE
:100B2000FFF73EFFFFF784FFFFF72AFEFFF7A4FD64
:100B30001AE00E480078302802D1FFF7B7FC13E026
:100B40000A480078312802D100F012F80CE007487A
:100B50000078322802D100F0CDF805E00348007893
:100B6000332801D100F0F2F8E3E700001400002080
:100B700010B53CA0FFF7BCFFFFF738FD3B48FFF77F
:100B8000B7FFFFF733FD3AA0FFF7B2FF3A48FFF790
:100B90007DFE3A49087008460078FFF791FF04E0AF
:100BA0003548FFF773FE36490870354800780D2840
:100BB000F6D13248007832490870FFF717FD304807
:100BC0000078722808D102202E4908602EA0FFF775
:100BD0008FFFFFF70BFD42E029480078672808D116
:100BE0000820284908602CA0FFF782FFFFF7FEFCD1
:100BF00035E023480078622808D1042021490860A4
:100C00002AA0FFF775FFFFF7F1FC28E01C480078E9
:100C1000702808D106201B49086028A0FFF768FF4C
:100C2000FFF7E4FC1BE016480078772808D10E2077
:100C30001449086026A0FFF75BFFFFF7D7FC0EE022
:100C40000F480078642802D00D48007838B9002099
:100C50000C49086023A0FFF74BFFFFF7C7FCFFF725
:100C6000C5FC10BD4D4F444520310000A00D0000D3
:100C7000456E7465723A20000800002017000020BD
:100C800016000020FC530240726564204C4544204D
:100C90006973206F6E2E0000677265656E204C458B
:100CA00044206973206F6E2E00000000626C756531
:100CB000204C4544206973206F6E2E007075727051
:100CC0006C65204C4544206973206F6E2E00000037
:100CD0007768697465204C4544206973206F6E2ED7
:100CE000000000006E6F204C4544206973206F6E39
:100CF0002E00000010B500200E49086014E006E048
:100D00000D480C49096850F821000C4908600C484E
:100D100000680028F4D00B48FFF7CAFD30380549B9
:100D20000860002006490860074800783228E6D0AD
:100D300010BD00000C00002020000020FC530240E9
:100D400004000020080000201400002010B50DA0B1
:100D5000FFF7CEFE13211048FFF7BCFD0E48FFF74A
:100D6000C7FEFFF743FC0C48FFF7CDFEFFF73EFC44
:100D700013210A48FFF7D3FDFFF738FC0748FFF7B8
:100D8000B7FE10BD496E20537472696E6720546FB0
:100D90002050433A20000000380000204C00002082
:100DA0002772273D207265642C202767273D206726
:100DB0007265656E2C202762273D20626C75652C5C
:100DC000202770273D20707572706C652C20277766
:100DD000273D2077686974652C202764273D2064AF
:100DE00061726B00040E000000000020380000005B
:100DF000C00200003C0E0000380000208804000003
:100E0000DC02000000000000000000000000000004
:100E100000000000000000003030000072676270C7
:100E200077640000020000000800000004000000D9
:0C0E3000060000000E00000000000000A2
:040000050000026D88
:00000001FF
